{
    "contractName": "BondLunch",
    "abi": [
        {
            "inputs": [
                {
                    "internalType": "address",
                    "name": "_bondContract",
                    "type": "address"
                }
            ],
            "stateMutability": "nonpayable",
            "type": "constructor"
        },
        {
            "inputs": [
                {
                    "internalType": "address",
                    "name": "target",
                    "type": "address"
                }
            ],
            "name": "AddressEmptyCode",
            "type": "error"
        },
        {
            "inputs": [
                {
                    "internalType": "address",
                    "name": "account",
                    "type": "address"
                }
            ],
            "name": "AddressInsufficientBalance",
            "type": "error"
        },
        {
            "inputs": [],
            "name": "EnforcedPause",
            "type": "error"
        },
        {
            "inputs": [],
            "name": "ExpectedPause",
            "type": "error"
        },
        {
            "inputs": [],
            "name": "FailedInnerCall",
            "type": "error"
        },
        {
            "inputs": [
                {
                    "internalType": "address",
                    "name": "owner",
                    "type": "address"
                }
            ],
            "name": "OwnableInvalidOwner",
            "type": "error"
        },
        {
            "inputs": [
                {
                    "internalType": "address",
                    "name": "account",
                    "type": "address"
                }
            ],
            "name": "OwnableUnauthorizedAccount",
            "type": "error"
        },
        {
            "inputs": [],
            "name": "ReentrancyGuardReentrantCall",
            "type": "error"
        },
        {
            "inputs": [
                {
                    "internalType": "address",
                    "name": "token",
                    "type": "address"
                }
            ],
            "name": "SafeERC20FailedOperation",
            "type": "error"
        },
        {
            "anonymous": false,
            "inputs": [
                {
                    "indexed": true,
                    "internalType": "address",
                    "name": "buyer",
                    "type": "address"
                },
                {
                    "indexed": true,
                    "internalType": "uint256",
                    "name": "amount",
                    "type": "uint256"
                }
            ],
            "name": "BuyBond",
            "type": "event"
        },
        {
            "anonymous": false,
            "inputs": [
                {
                    "indexed": true,
                    "internalType": "address",
                    "name": "_user",
                    "type": "address"
                },
                {
                    "indexed": true,
                    "internalType": "uint256",
                    "name": "_id",
                    "type": "uint256"
                }
            ],
            "name": "DeleteLunch",
            "type": "event"
        },
        {
            "anonymous": false,
            "inputs": [
                {
                    "indexed": true,
                    "internalType": "address",
                    "name": "_user",
                    "type": "address"
                },
                {
                    "indexed": true,
                    "internalType": "uint256",
                    "name": "_id",
                    "type": "uint256"
                },
                {
                    "indexed": false,
                    "internalType": "uint256",
                    "name": "_amount",
                    "type": "uint256"
                }
            ],
            "name": "IncrementBondInLunc",
            "type": "event"
        },
        {
            "anonymous": false,
            "inputs": [
                {
                    "indexed": true,
                    "internalType": "address",
                    "name": "_user",
                    "type": "address"
                },
                {
                    "indexed": true,
                    "internalType": "uint256",
                    "name": "_id",
                    "type": "uint256"
                },
                {
                    "indexed": false,
                    "internalType": "uint256",
                    "name": "_amount",
                    "type": "uint256"
                }
            ],
            "name": "NewBondInLunch",
            "type": "event"
        },
        {
            "anonymous": false,
            "inputs": [
                {
                    "indexed": true,
                    "internalType": "address",
                    "name": "previousOwner",
                    "type": "address"
                },
                {
                    "indexed": true,
                    "internalType": "address",
                    "name": "newOwner",
                    "type": "address"
                }
            ],
            "name": "OwnershipTransferred",
            "type": "event"
        },
        {
            "anonymous": false,
            "inputs": [
                {
                    "indexed": false,
                    "internalType": "address",
                    "name": "account",
                    "type": "address"
                }
            ],
            "name": "Paused",
            "type": "event"
        },
        {
            "anonymous": false,
            "inputs": [
                {
                    "indexed": false,
                    "internalType": "address",
                    "name": "account",
                    "type": "address"
                }
            ],
            "name": "Unpaused",
            "type": "event"
        },
        {
            "anonymous": false,
            "inputs": [
                {
                    "indexed": true,
                    "internalType": "address",
                    "name": "user",
                    "type": "address"
                },
                {
                    "indexed": true,
                    "internalType": "address",
                    "name": "token",
                    "type": "address"
                },
                {
                    "indexed": false,
                    "internalType": "uint256",
                    "name": "amount",
                    "type": "uint256"
                }
            ],
            "name": "WitrawToken",
            "type": "event"
        },
        {
            "inputs": [
                {
                    "internalType": "uint256",
                    "name": "_id",
                    "type": "uint256"
                },
                {
                    "internalType": "uint256",
                    "name": "_index",
                    "type": "uint256"
                },
                {
                    "internalType": "uint256",
                    "name": "_amount",
                    "type": "uint256"
                }
            ],
            "name": "buyBond",
            "outputs": [],
            "stateMutability": "nonpayable",
            "type": "function"
        },
        {
            "inputs": [
                {
                    "internalType": "uint256",
                    "name": "_id",
                    "type": "uint256"
                },
                {
                    "internalType": "uint256",
                    "name": "_amount",
                    "type": "uint256"
                }
            ],
            "name": "lunchNewBond",
            "outputs": [],
            "stateMutability": "nonpayable",
            "type": "function"
        },
        {
            "inputs": [],
            "name": "owner",
            "outputs": [
                {
                    "internalType": "address",
                    "name": "",
                    "type": "address"
                }
            ],
            "stateMutability": "view",
            "type": "function"
        },
        {
            "inputs": [],
            "name": "paused",
            "outputs": [
                {
                    "internalType": "bool",
                    "name": "",
                    "type": "bool"
                }
            ],
            "stateMutability": "view",
            "type": "function"
        },
        {
            "inputs": [],
            "name": "renounceOwnership",
            "outputs": [],
            "stateMutability": "nonpayable",
            "type": "function"
        },
        {
            "inputs": [
                {
                    "internalType": "uint256",
                    "name": "_id",
                    "type": "uint256"
                }
            ],
            "name": "showBondDetail",
            "outputs": [
                {
                    "internalType": "uint256",
                    "name": "id",
                    "type": "uint256"
                },
                {
                    "internalType": "address",
                    "name": "issuer",
                    "type": "address"
                },
                {
                    "internalType": "address",
                    "name": "tokenLoan",
                    "type": "address"
                },
                {
                    "internalType": "uint256",
                    "name": "sizeLoan",
                    "type": "uint256"
                },
                {
                    "internalType": "uint256",
                    "name": "interest",
                    "type": "uint256"
                },
                {
                    "internalType": "uint256[]",
                    "name": "couponMaturity",
                    "type": "uint256[]"
                },
                {
                    "internalType": "uint256",
                    "name": "expiredBond",
                    "type": "uint256"
                },
                {
                    "internalType": "address",
                    "name": "tokenCollateral",
                    "type": "address"
                },
                {
                    "internalType": "uint256",
                    "name": "collateral",
                    "type": "uint256"
                },
                {
                    "internalType": "uint256",
                    "name": "balancLoanRepay",
                    "type": "uint256"
                },
                {
                    "internalType": "string",
                    "name": "describes",
                    "type": "string"
                },
                {
                    "internalType": "uint256",
                    "name": "amount",
                    "type": "uint256"
                }
            ],
            "stateMutability": "nonpayable",
            "type": "function"
        },
        {
            "inputs": [],
            "name": "showBondLunchList",
            "outputs": [
                {
                    "internalType": "uint256[]",
                    "name": "_listBonds",
                    "type": "uint256[]"
                }
            ],
            "stateMutability": "view",
            "type": "function"
        },
        {
            "inputs": [
                {
                    "internalType": "address",
                    "name": "newOwner",
                    "type": "address"
                }
            ],
            "name": "transferOwnership",
            "outputs": [],
            "stateMutability": "nonpayable",
            "type": "function"
        },
        {
            "inputs": [
                {
                    "internalType": "address",
                    "name": "_token",
                    "type": "address"
                }
            ],
            "name": "withdrawToken",
            "outputs": [],
            "stateMutability": "nonpayable",
            "type": "function"
        }
    ],
    "bytecode": "60803460d957601f610da238819003918201601f19168301916001600160401b0383118484101760dd5780849260209460405283398101031260d957516001600160a01b0381169081900360d95760ff195f54165f5560018055331560c65760028054336001600160a01b0319821681179092556040519291906001600160a01b03167f8be0079c531659141344cd1fd0a4f28419497f9722a3daafe3b4186f6b6457e05f80a3600380546001600160a01b031916919091179055610cb090816100f28239f35b631e4fbdf760e01b5f525f60045260245ffd5b5f80fd5b634e487b7160e01b5f52604160045260245ffdfe6080806040526004361015610012575f80fd5b5f3560e01c90816311945f92146106ab575080635c975abb1461068a5780636473a4f3146105c3578063715018a61461056857806389476069146104d45780638da5cb5b146104ac5780638e097dfe146102f5578063f2fde38b1461026b5763fd35e4801461007f575f80fd5b346102675760603660031901126102675760443560043561009e6109fc565b6100a6610a1c565b806100b2602435610a77565b90549060031b1c0361022f576100c7816107e7565b5050505050505050909250835f94929452600560205260405f2054156101f757815f52600560205260405f205485116101b25761010f6101078287610aa3565b303386610ab6565b815f52600560205260405f2080549086820391821161019e576101409361013a928892553330610b63565b84610aa3565b9160018060a01b03165f52600460205260405f209060018060a01b03165f5260205260405f20805491820180921161019e5755337f5a7a2737bf397fce34ef8e49d5ef5aa5b631eba9edb326c67d45bfd546d2da815f80a360018055005b634e487b7160e01b5f52601160045260245ffd5b60405162461bcd60e51b815260206004820152601c60248201527f446967697420636f727265637420616d6f756e7420666f7220627579000000006044820152606490fd5b60405162461bcd60e51b815260206004820152601060248201526f109bdb99081a5cc81bdd5d0814d95b1b60821b6044820152606490fd5b60405162461bcd60e51b815260206004820152601060248201526f426f6e64206e6f7420696e2073616c6560801b6044820152606490fd5b5f80fd5b34610267576020366003190112610267576004356001600160a01b03811690819003610267576102996109d5565b80156102e257600280546001600160a01b0319811683179091556001600160a01b03167f8be0079c531659141344cd1fd0a4f28419497f9722a3daafe3b4186f6b6457e05f80a3005b631e4fbdf760e01b5f525f60045260245ffd5b34610267576040366003190112610267576004356024356103146109fc565b61031c610a1c565b610325826107e7565b9b9a50505050505050505050339060018060a01b0316036104575761035a61036292610352831515610a36565b821115610a36565b823033610b63565b600354604051627eeac760e11b81523060048201526024810183905290602090829060449082906001600160a01b03165afa90811561044c575f9161041a575b50815f52600560205260405f20556103b981610bde565b9050156103c7575b60018055005b60065468010000000000000000811015610406578060016103eb9201600655610a77565b819291549060031b91821b915f19901b1916179055806103c1565b634e487b7160e01b5f52604160045260245ffd5b90506020813d602011610444575b8161043560209383610766565b810103126102675751826103a2565b3d9150610428565b6040513d5f823e3d90fd5b60405162461bcd60e51b815260206004820152602760248201527f4f6e6c792069757373657220426f6e642063616e206c756e63682074686920666044820152663ab731ba34b7b760c91b6064820152608490fd5b34610267575f366003190112610267576002546040516001600160a01b039091168152602090f35b34610267576020366003190112610267576004356001600160a01b03811690818103610267576105026109fc565b61050a610a1c565b335f81815260046020908152604080832086845290915281208054919055916105369183913090610ab6565b6040519081527f97ed4d6aba5c6a693ea15c40ff8f8bcba395b077b5387b223bcaf2ee26ad167060203392a360018055005b34610267575f366003190112610267576105806109d5565b600280546001600160a01b031981169091555f906001600160a01b03167f8be0079c531659141344cd1fd0a4f28419497f9722a3daafe3b4186f6b6457e08280a3005b34610267576020366003190112610267576105df6004356107e7565b96919592949860409b9a9b989198519b8c9b8c52600160a01b600190031660208c0152600160a01b600190031660408b015260608a0152608089015260a088016101809052610180880161063291610733565b9560c0880152600160a01b600190031660e087015261010086015261012085015283830361014085015281518092818552602001602085015e8183016020015f9052610160840152601f1990601f0116010360200190f35b34610267575f36600319011261026757602060ff5f54166040519015158152f35b34610267575f36600319011261026757600654808252602082019060065f527ff652222313e28459528d920b65115c16c04f3efc82aaedc97be59f3f377c0d3f905f5b81811061071d576107198561070581870382610766565b604051918291602083526020830190610733565b0390f35b82548452602090930192600192830192016106ee565b90602080835192838152019201905f5b8181106107505750505090565b8251845260209384019390920191600101610743565b90601f8019910116810190811067ffffffffffffffff82111761040657604052565b67ffffffffffffffff811161040657601f01601f191660200190565b3d156107ce573d906107b582610788565b916107c36040519384610766565b82523d5f602084013e565b606090565b51906001600160a01b038216820361026757565b5f809160018060a01b036003541690826040516020810192636c9e876f60e01b845260248201526024815261081d604482610766565b51925af16108296107a4565b9015610999578051810190610180816020840193031261026757602081015191610855604083016107d3565b91610862606082016107d3565b9160808201519160a08101519160c082015167ffffffffffffffff81116102675782019181603f840112156102675760208301519267ffffffffffffffff8411610406578360051b604051946108bb6020830187610766565b8552810160400190602085019084831161026757604001905b8282106109895750505060e0810151916108f161010083016107d3565b91610120810151916101408201519161016081015167ffffffffffffffff81116102675781019082603f8301121561026757602082015161093181610788565b9361093f6040519586610766565b81855260408483010111610267576020815f92604061018096018388015e8501015201519a9b6001600160a01b039a8b169b998b169a989997989697959690941694929391929091565b81518152602091820191016108d4565b60405162461bcd60e51b8152602060048201526014602482015273115e1d195c9b985b0818d85b1b0819985a5b195960621b6044820152606490fd5b6002546001600160a01b031633036109e957565b63118cdaa760e01b5f523360045260245ffd5b600260015414610a0d576002600155565b633ee5aeb560e01b5f5260045ffd5b60ff5f5416610a2757565b63d93c066560e01b5f5260045ffd5b15610a3d57565b60405162461bcd60e51b815260206004820152601260248201527114d95d0818dbdc9c9958dd08185b5bdd5b9d60721b6044820152606490fd5b600654811015610a8f5760065f5260205f2001905f90565b634e487b7160e01b5f52603260045260245ffd5b8181029291811591840414171561019e57565b6040516323b872dd60e01b602082019081526001600160a01b03938416602483015293831660448201526064808201959095529384521691610b17915f91829190610b02608482610766565b519082865af1610b106107a4565b9083610c1c565b8051908115159182610b3f575b5050610b2d5750565b635274afe760e01b5f5260045260245ffd5b81925090602091810103126102675760200151801590811503610267575f80610b24565b6003549293926001600160a01b031690813b15610267575f60c49281956040519788968795637921219560e11b875260018060a01b0316600487015260018060a01b031660248601526044850152606484015260a060848401528160a48401525af1801561044c57610bd25750565b5f610bdc91610766565b565b600654905f5b828110610bf5575050505f19905f90565b81610bff82610a77565b90549060031b1c14610c1357600101610be4565b91505090600190565b90610c405750805115610c3157805190602001fd5b630a12f52160e11b5f5260045ffd5b81511580610c71575b610c51575090565b639996b31560e01b5f9081526001600160a01b0391909116600452602490fd5b50803b15610c4956fea26469706673582212201d8c8ed6b38184ddab80bd38926f58796ec9b696896012fdfbd2fe292f20993064736f6c634300081c0033",
    "sourcePath": "/home/leluk/Desktop/Study/solidity/project/contractBond/contracts/BondLunch.sol",
    "compiler": {
        "name": "solc",
        "version": "0.8.28+commit.7893614a"
    },
    "functionHashes": {
        "buyBond(uint256,uint256,uint256)": "fd35e480",
        "lunchNewBond(uint256,uint256)": "8e097dfe",
        "owner()": "8da5cb5b",
        "paused()": "5c975abb",
        "renounceOwnership()": "715018a6",
        "showBondDetail(uint256)": "6473a4f3",
        "showBondLunchList()": "11945f92",
        "transferOwnership(address)": "f2fde38b",
        "withdrawToken(address)": "89476069"
    },
    "gasEstimates": {
        "creation": {
            "codeDepositCost": "649600",
            "executionCost": "infinite",
            "totalCost": "infinite"
        },
        "external": {
            "buyBond(uint256,uint256,uint256)": "infinite",
            "lunchNewBond(uint256,uint256)": "infinite",
            "owner()": "2390",
            "paused()": "2289",
            "renounceOwnership()": "28126",
            "showBondDetail(uint256)": "infinite",
            "showBondLunchList()": "infinite",
            "transferOwnership(address)": "28286",
            "withdrawToken(address)": "infinite"
        },
        "internal": {
            "_buyBond(address,uint256,uint256,uint256)": "infinite",
            "_deleteLunch(address,uint256,uint256)": "infinite",
            "_depositBond(address,address,uint256,uint256)": "infinite",
            "_lunchNewBond(address,uint256,uint256)": "infinite",
            "_moveErc20(address,address,address,uint256)": "infinite",
            "_srcIndexListBonds(uint256)": "infinite",
            "_withdrawToken(address,address)": "infinite"
        }
    }
}