{
    "contractName": "BondMarket",
    "abi": [
        {
            "inputs": [
                {
                    "internalType": "address",
                    "name": "_bondContrac",
                    "type": "address"
                },
                {
                    "internalType": "address",
                    "name": "_money",
                    "type": "address"
                }
            ],
            "stateMutability": "nonpayable",
            "type": "constructor"
        },
        {
            "inputs": [
                {
                    "internalType": "address",
                    "name": "target",
                    "type": "address"
                }
            ],
            "name": "AddressEmptyCode",
            "type": "error"
        },
        {
            "inputs": [
                {
                    "internalType": "address",
                    "name": "account",
                    "type": "address"
                }
            ],
            "name": "AddressInsufficientBalance",
            "type": "error"
        },
        {
            "inputs": [],
            "name": "EnforcedPause",
            "type": "error"
        },
        {
            "inputs": [],
            "name": "ExpectedPause",
            "type": "error"
        },
        {
            "inputs": [],
            "name": "FailedInnerCall",
            "type": "error"
        },
        {
            "inputs": [
                {
                    "internalType": "address",
                    "name": "owner",
                    "type": "address"
                }
            ],
            "name": "OwnableInvalidOwner",
            "type": "error"
        },
        {
            "inputs": [
                {
                    "internalType": "address",
                    "name": "account",
                    "type": "address"
                }
            ],
            "name": "OwnableUnauthorizedAccount",
            "type": "error"
        },
        {
            "inputs": [],
            "name": "ReentrancyGuardReentrantCall",
            "type": "error"
        },
        {
            "inputs": [
                {
                    "internalType": "address",
                    "name": "token",
                    "type": "address"
                }
            ],
            "name": "SafeERC20FailedOperation",
            "type": "error"
        },
        {
            "anonymous": false,
            "inputs": [
                {
                    "indexed": false,
                    "internalType": "uint256",
                    "name": "_index",
                    "type": "uint256"
                },
                {
                    "indexed": false,
                    "internalType": "uint256",
                    "name": "_time",
                    "type": "uint256"
                }
            ],
            "name": "CloseAuction",
            "type": "event"
        },
        {
            "anonymous": false,
            "inputs": [
                {
                    "indexed": true,
                    "internalType": "address",
                    "name": "_owner",
                    "type": "address"
                },
                {
                    "indexed": true,
                    "internalType": "uint256",
                    "name": "_id",
                    "type": "uint256"
                },
                {
                    "indexed": false,
                    "internalType": "uint256",
                    "name": "_amount",
                    "type": "uint256"
                }
            ],
            "name": "NewAuction",
            "type": "event"
        },
        {
            "anonymous": false,
            "inputs": [
                {
                    "indexed": true,
                    "internalType": "address",
                    "name": "previousOwner",
                    "type": "address"
                },
                {
                    "indexed": true,
                    "internalType": "address",
                    "name": "newOwner",
                    "type": "address"
                }
            ],
            "name": "OwnershipTransferred",
            "type": "event"
        },
        {
            "anonymous": false,
            "inputs": [
                {
                    "indexed": false,
                    "internalType": "address",
                    "name": "account",
                    "type": "address"
                }
            ],
            "name": "Paused",
            "type": "event"
        },
        {
            "anonymous": false,
            "inputs": [
                {
                    "indexed": false,
                    "internalType": "address",
                    "name": "account",
                    "type": "address"
                }
            ],
            "name": "Unpaused",
            "type": "event"
        },
        {
            "anonymous": false,
            "inputs": [
                {
                    "indexed": true,
                    "internalType": "address",
                    "name": "_user",
                    "type": "address"
                },
                {
                    "indexed": true,
                    "internalType": "uint256",
                    "name": "_index",
                    "type": "uint256"
                },
                {
                    "indexed": true,
                    "internalType": "uint256",
                    "name": "amount",
                    "type": "uint256"
                }
            ],
            "name": "WithDrawBond",
            "type": "event"
        },
        {
            "anonymous": false,
            "inputs": [
                {
                    "indexed": true,
                    "internalType": "address",
                    "name": "_user",
                    "type": "address"
                },
                {
                    "indexed": true,
                    "internalType": "uint256",
                    "name": "amount",
                    "type": "uint256"
                }
            ],
            "name": "WithDrawMoney",
            "type": "event"
        },
        {
            "anonymous": false,
            "inputs": [
                {
                    "indexed": true,
                    "internalType": "address",
                    "name": "_player",
                    "type": "address"
                },
                {
                    "indexed": true,
                    "internalType": "uint256",
                    "name": "_index",
                    "type": "uint256"
                },
                {
                    "indexed": false,
                    "internalType": "uint256",
                    "name": "_amountPot",
                    "type": "uint256"
                }
            ],
            "name": "newInstalmentPot",
            "type": "event"
        },
        {
            "inputs": [
                {
                    "internalType": "uint256",
                    "name": "_index",
                    "type": "uint256"
                }
            ],
            "name": "closeAuction",
            "outputs": [],
            "stateMutability": "nonpayable",
            "type": "function"
        },
        {
            "inputs": [
                {
                    "internalType": "uint256",
                    "name": "_index",
                    "type": "uint256"
                },
                {
                    "internalType": "uint256",
                    "name": "_amount",
                    "type": "uint256"
                }
            ],
            "name": "instalmentPot",
            "outputs": [],
            "stateMutability": "nonpayable",
            "type": "function"
        },
        {
            "inputs": [
                {
                    "internalType": "uint256",
                    "name": "_id",
                    "type": "uint256"
                },
                {
                    "internalType": "uint256",
                    "name": "_amount",
                    "type": "uint256"
                },
                {
                    "internalType": "uint256",
                    "name": "_startPrice",
                    "type": "uint256"
                },
                {
                    "internalType": "uint256",
                    "name": "_expired",
                    "type": "uint256"
                }
            ],
            "name": "newAcutionBond",
            "outputs": [],
            "stateMutability": "nonpayable",
            "type": "function"
        },
        {
            "inputs": [],
            "name": "owner",
            "outputs": [
                {
                    "internalType": "address",
                    "name": "",
                    "type": "address"
                }
            ],
            "stateMutability": "view",
            "type": "function"
        },
        {
            "inputs": [],
            "name": "paused",
            "outputs": [
                {
                    "internalType": "bool",
                    "name": "",
                    "type": "bool"
                }
            ],
            "stateMutability": "view",
            "type": "function"
        },
        {
            "inputs": [],
            "name": "renounceOwnership",
            "outputs": [],
            "stateMutability": "nonpayable",
            "type": "function"
        },
        {
            "inputs": [
                {
                    "internalType": "uint256",
                    "name": "_index",
                    "type": "uint256"
                }
            ],
            "name": "showAuction",
            "outputs": [
                {
                    "components": [
                        {
                            "internalType": "address",
                            "name": "owner",
                            "type": "address"
                        },
                        {
                            "internalType": "uint256",
                            "name": "id",
                            "type": "uint256"
                        },
                        {
                            "internalType": "uint256",
                            "name": "amount",
                            "type": "uint256"
                        },
                        {
                            "internalType": "uint256",
                            "name": "startPrice",
                            "type": "uint256"
                        },
                        {
                            "internalType": "uint256",
                            "name": "expired",
                            "type": "uint256"
                        },
                        {
                            "internalType": "uint256",
                            "name": "pot",
                            "type": "uint256"
                        },
                        {
                            "internalType": "address",
                            "name": "player",
                            "type": "address"
                        },
                        {
                            "internalType": "bool",
                            "name": "open",
                            "type": "bool"
                        }
                    ],
                    "internalType": "struct BondMarket.Auction",
                    "name": "",
                    "type": "tuple"
                }
            ],
            "stateMutability": "view",
            "type": "function"
        },
        {
            "inputs": [],
            "name": "showAuctionsList",
            "outputs": [
                {
                    "components": [
                        {
                            "internalType": "address",
                            "name": "owner",
                            "type": "address"
                        },
                        {
                            "internalType": "uint256",
                            "name": "id",
                            "type": "uint256"
                        },
                        {
                            "internalType": "uint256",
                            "name": "amount",
                            "type": "uint256"
                        },
                        {
                            "internalType": "uint256",
                            "name": "startPrice",
                            "type": "uint256"
                        },
                        {
                            "internalType": "uint256",
                            "name": "expired",
                            "type": "uint256"
                        },
                        {
                            "internalType": "uint256",
                            "name": "pot",
                            "type": "uint256"
                        },
                        {
                            "internalType": "address",
                            "name": "player",
                            "type": "address"
                        },
                        {
                            "internalType": "bool",
                            "name": "open",
                            "type": "bool"
                        }
                    ],
                    "internalType": "struct BondMarket.Auction[]",
                    "name": "",
                    "type": "tuple[]"
                }
            ],
            "stateMutability": "view",
            "type": "function"
        },
        {
            "inputs": [
                {
                    "internalType": "address",
                    "name": "newOwner",
                    "type": "address"
                }
            ],
            "name": "transferOwnership",
            "outputs": [],
            "stateMutability": "nonpayable",
            "type": "function"
        },
        {
            "inputs": [
                {
                    "internalType": "uint256",
                    "name": "_index",
                    "type": "uint256"
                }
            ],
            "name": "withDrawBond",
            "outputs": [],
            "stateMutability": "nonpayable",
            "type": "function"
        },
        {
            "inputs": [
                {
                    "internalType": "uint256",
                    "name": "_amount",
                    "type": "uint256"
                }
            ],
            "name": "withdrawMoney",
            "outputs": [],
            "stateMutability": "nonpayable",
            "type": "function"
        }
    ],
    "bytecode": "6080346100fa57601f61116238819003918201601f19168301916001600160401b038311848410176100fe5780849260409485528339810103126100fa57610052602061004b83610112565b9201610112565b60ff195f54165f556001805533156100e75760028054336001600160a01b0319821681179092556040519391906001600160a01b03167f8be0079c531659141344cd1fd0a4f28419497f9722a3daafe3b4186f6b6457e05f80a3600380546001600160a01b039283166001600160a01b0319918216179091556004805493909216921691909117905561103b90816101278239f35b631e4fbdf760e01b5f525f60045260245ffd5b5f80fd5b634e487b7160e01b5f52604160045260245ffd5b51906001600160a01b03821682036100fa5756fe6080806040526004361015610012575f80fd5b5f3560e01c9081631e4ef18c14610b5f57508063236ed8f3146109b7578063548769211461086c5780635c975abb1461084b578063715018a6146107f05780638da5cb5b146107c8578063918af8fa14610573578063cac5d1ba14610428578063cde7451c14610213578063f0aa872b146101235763f2fde38b14610095575f80fd5b3461011f57602036600319011261011f576004356001600160a01b0381169081900361011f576100c3610e10565b801561010c57600280546001600160a01b0319811683179091556001600160a01b03167f8be0079c531659141344cd1fd0a4f28419497f9722a3daafe3b4186f6b6457e05f80a3005b631e4fbdf760e01b5f525f60045260245ffd5b5f80fd5b3461011f575f36600319011261011f5760055467ffffffffffffffff81116101ff576040519061015960208260051b0183610c46565b80825260208201908160055f527f036b6384b5eca791c62761152d0c79bb0604c104a5fb6f4eb0703f3154bb3db05f915b8383106101e1578486604051918291602083019060208452518091526040830191905f5b8181106101bc575050500390f35b919350916020610100826101d36001948851610bcc565b0194019101918493926101ae565b600760206001926101f185610c98565b81520192019201919061018a565b634e487b7160e01b5f52604160045260245ffd5b3461011f57604036600319011261011f57600435602435610232610d5f565b61023f6005548310610d06565b600461024a83610c68565b5001544211156103e357600160ff600661026385610c68565b50015460a01c161515036103a65780600561027d84610c68565b500154101561036257610291813033610e37565b335f52600760205260405f206102a8828254610d52565b9055335f52600660205260405f206102c1828254610d52565b905560056102ce83610c68565b5001546102da83610c68565b50600601546001600160a01b03165f9081526007602052604090208054909161030291610e03565b9055600661030f83610c68565b500180546001600160a01b0319163317905580600561032d84610c68565b5001556040519081527fe91d7154f5d05e7742771a51aa79a5bcf7adf81e1260cebe96b1f95ac9dea84560203392a360018055005b606460405162461bcd60e51b815260206004820152602060248201527f5468697320706f74206973206c6f77207468656e20616c726561647920706f746044820152fd5b60405162461bcd60e51b8152602060048201526015602482015274546869732061756374696f6e20697320636c6f736560581b6044820152606490fd5b60405162461bcd60e51b815260206004820152601760248201527f546869732061756374696f6e20697320657870697265640000000000000000006044820152606490fd5b3461011f57602036600319011261011f57600435610444610d5f565b6104516005548210610d06565b61046f61045d82610c68565b50546001600160a01b03163314610d7f565b610488600461047d83610c68565b500154421115610db7565b60ff600661049583610c68565b50015460a01c166105375760026104ab82610c68565b500154905f60026104bb83610c68565b5001556104eb826104cb83610c68565b50546001600160a01b031660016104e185610c68565b5001549030610f21565b60016105096104f983610c68565b50828060a01b0390541692610c68565b500154907f81656f2447e445b745a9252017175a9e8482e34c38def1fff70a7a4f79acec095f80a460018055005b60405162461bcd60e51b81526020600482015260146024820152732a3434b99030bab1ba34b7b71034b99027b832b760611b6044820152606490fd5b3461011f57608036600319011261011f57600435602435604435606435610598610d5f565b821561078357811561073e5762093a80420180421161072a578111156106e5576105c483853033610f21565b6040516105d081610c29565b338152602081018581526040820192858452606083019485526080830190815260a08301905f825260c084019533875260e085019560018752600554680100000000000000008110156101ff5780600161062d9201600555610c68565b9590956106d257955185546001600160a01b0319166001600160a01b03918216178655955160018601555160028501555160038401555160048301555160058201559251600693909301805492516001600160a81b0319909316939091169290921790151560a01b60ff60a01b1617905560405190815233907fc078426956212265671526c1abdaea1311badbf1505fe0711db77bca2fa9afae90602090a360018055005b634e487b7160e01b5f525f60045260245ffd5b60405162461bcd60e51b815260206004820152601a60248201527f53657420636f7272656374206578706972656420706572696f640000000000006044820152606490fd5b634e487b7160e01b5f52601160045260245ffd5b60405162461bcd60e51b815260206004820152601760248201527f53657420636f72726563742073746172742070726963650000000000000000006044820152606490fd5b60405162461bcd60e51b815260206004820152601960248201527f53657420636f727265637420626f6e64277320616d6f756e74000000000000006044820152606490fd5b3461011f575f36600319011261011f576002546040516001600160a01b039091168152602090f35b3461011f575f36600319011261011f57610808610e10565b600280546001600160a01b031981169091555f906001600160a01b03167f8be0079c531659141344cd1fd0a4f28419497f9722a3daafe3b4186f6b6457e08280a3005b3461011f575f36600319011261011f57602060ff5f54166040519015158152f35b3461011f57602036600319011261011f57600435610888610d5f565b335f5260066020526108ab60405f2054335f52600760205260405f205490610e03565b811161096357335f52600760205260405f2054335f5260066020526108d48260405f2054610e03565b1061092857335f52600660205260405f206108f0828254610e03565b90556108fd813330610e37565b337ff9b0350773858ea9ce560771e315626666a06cfe814575dcb767430e3a21e6235f80a360018055005b60405162461bcd60e51b815260206004820152601360248201527224b731b7b93932b1ba1027b832b930ba34b7b760691b6044820152606490fd5b60405162461bcd60e51b815260206004820152602660248201527f467265652062616c616e6365206973206c6f7720666f722074686973206f70656044820152653930ba34b7b760d11b6064820152608490fd5b3461011f57602036600319011261011f576004356109d3610d5f565b6109e06005548210610d06565b6109ec61045d82610c68565b6109fa600461047d83610c68565b600160ff6006610a0984610c68565b50015460a01c16151503610b1a576040816006610a467fd4c37cf7a2dd87bf216584303aca56ea151859875ce77d12a2d35f240b39d74894610c68565b5001805460ff60a01b19169055610a5c81610c68565b50600601546001600160a01b0316610a7382610c68565b50546001600160a01b03166005610a8984610c68565b500154915f6005610a9986610c68565b500155610aa584610c68565b5080546001600160a01b0319166001600160a01b0383161790555f81815260066020528590208054610ad8908590610e03565b90555f526007602052835f20610aef838254610e03565b90555f526006602052610b06835f20918254610d52565b90558151908152426020820152a160018055005b60405162461bcd60e51b815260206004820152601a60248201527f546869732061756374696f6e20616c726561647920636c6f73650000000000006044820152606490fd5b3461011f57602036600319011261011f5760e081610b7d5f93610c29565b8281528260208201528260408201528260608201528260808201528260a08201528260c08201520152610100610bbd610bb7600435610c68565b50610c98565b610bca6040518092610bcc565bf35b60e0809160018060a01b0381511684526020810151602085015260408101516040850152606081015160608501526080810151608085015260a081015160a085015260018060a01b0360c08201511660c085015201511515910152565b610100810190811067ffffffffffffffff8211176101ff57604052565b90601f8019910116810190811067ffffffffffffffff8211176101ff57604052565b600554811015610c845760055f52600760205f20910201905f90565b634e487b7160e01b5f52603260045260245ffd5b90604051610ca581610c29565b60e060ff6006839560018060a01b03815416855260018101546020860152600281015460408601526003810154606086015260048101546080860152600581015460a0860152015460018060a01b03811660c085015260a01c161515910152565b15610d0d57565b60405162461bcd60e51b815260206004820152601d60248201527f646967697420636f727265637420696e64657820666f722061727261790000006044820152606490fd5b9190820180921161072a57565b600260015414610d70576002600155565b633ee5aeb560e01b5f5260045ffd5b15610d8657565b60405162461bcd60e51b81526020600482015260096024820152682737ba1027bbb732b960b91b6044820152606490fd5b15610dbe57565b60405162461bcd60e51b815260206004820152601b60248201527f546869732061756374696f6e206973206e6f74206578706972656400000000006044820152606490fd5b9190820391821161072a57565b6002546001600160a01b03163303610e2457565b63118cdaa760e01b5f523360045260245ffd5b6004546040516323b872dd60e01b602082019081526001600160a01b039384166024830152938316604482015260648082019590955293845216915f918291610e81608482610c46565b519082855af13d15610f15573d67ffffffffffffffff81116101ff57610ec99160405191610eb96020601f19601f8401160184610c46565b82523d5f602084013e5b83610fa7565b8051908115159182610ef1575b5050610edf5750565b635274afe760e01b5f5260045260245ffd5b819250906020918101031261011f576020015180159081150361011f575f80610ed6565b610ec990606090610ec3565b6003549293926001600160a01b031690813b1561011f575f60c49281956040519788968795637921219560e11b875260018060a01b0316600487015260018060a01b031660248601526044850152606484015260a060848401528160a48401525af18015610f9c57610f905750565b5f610f9a91610c46565b565b6040513d5f823e3d90fd5b90610fcb5750805115610fbc57805190602001fd5b630a12f52160e11b5f5260045ffd5b81511580610ffc575b610fdc575090565b639996b31560e01b5f9081526001600160a01b0391909116600452602490fd5b50803b15610fd456fea2646970667358221220bc655eee4190b164ade80ad2a7481052267b0cdef6c96ed636b2908524347e3f64736f6c634300081c0033",
    "sourcePath": "/home/leluk/Desktop/Study/solidity/project/contractBond/contracts/GenerateBond.sol",
    "compiler": {
        "name": "solc",
        "version": "0.8.28+commit.7893614a"
    },
    "functionHashes": {
        "closeAuction(uint256)": "236ed8f3",
        "instalmentPot(uint256,uint256)": "cde7451c",
        "newAcutionBond(uint256,uint256,uint256,uint256)": "918af8fa",
        "owner()": "8da5cb5b",
        "paused()": "5c975abb",
        "renounceOwnership()": "715018a6",
        "showAuction(uint256)": "1e4ef18c",
        "showAuctionsList()": "f0aa872b",
        "transferOwnership(address)": "f2fde38b",
        "withDrawBond(uint256)": "cac5d1ba",
        "withdrawMoney(uint256)": "54876921"
    },
    "gasEstimates": {
        "creation": {
            "codeDepositCost": "831000",
            "executionCost": "infinite",
            "totalCost": "infinite"
        },
        "external": {
            "closeAuction(uint256)": "infinite",
            "instalmentPot(uint256,uint256)": "infinite",
            "newAcutionBond(uint256,uint256,uint256,uint256)": "infinite",
            "owner()": "2390",
            "paused()": "2333",
            "renounceOwnership()": "28148",
            "showAuction(uint256)": "infinite",
            "showAuctionsList()": "infinite",
            "transferOwnership(address)": "28349",
            "withDrawBond(uint256)": "infinite",
            "withdrawMoney(uint256)": "infinite"
        },
        "internal": {
            "_closeAuction(address,uint256)": "infinite",
            "_depositBond(address,address,uint256,uint256)": "infinite",
            "_depositErc20(address,address,uint256)": "infinite",
            "_instalmentPot(address,uint256,uint256)": "infinite",
            "_newAcutionBond(address,uint256,uint256,uint256,uint256)": "infinite",
            "_setAuctionData(address,uint256,uint256,uint256,uint256)": "infinite",
            "_withDrawBond(address,uint256)": "infinite",
            "_withdrawMoney(address,uint256)": "infinite"
        }
    }
}